:100000000C9473000C942A0A0C94030A0C949B0021
:100010000C949B000C949B000C949B000C949B00F4
:100020000C949B000C949B000C949B000C949B00E4
:100030000C949B000C94DD0B0C949B000C949B0087
:100040000C94B9090C949B000C94AB0B0C94850B8D
:100050000C949B000C949B000C949B000C949B00B4
:100060000C949B000C949B000000000024002700CF
:100070002A0000000000250028002B0000000008D6
:10008000000201000003040700000000000000005F
:1000900000000000230026002900040404040404D6
:1000A0000404020202020202030303030303010227
:1000B00004081020408001020408102001020408F6
:1000C0001020005EBCE2613FDD83C29C7E20A3FD68
:1000D0001F41009D23BE46DB65F88C11AF32CA5725
:1000E000E9747D12211511241FBECFEFD8E0DEBFC9
:1000F000CDBF12E0A0E0B1E0E2E9F2E302C005907A
:100100000D92AE36B107D9F724E0AEE6B2E001C0F9
:100110001D92AE34B207E1F710E0C2E7D0E004C0B0
:100120002197FE010E94E317C137D107C9F70E944A
:10013000810D0C943C190C940000809170029091F8
:10014000710201969093710280937002089521E0EC
:10015000FC018281811101C020E0822F089521E0FD
:10016000FC018281811101C020E0822F0895FC01F1
:100170002281233011F4623021F0FC01628381E09E
:10018000089580E0089581E00895CF93DF93EC0116
:100190008D850E943E08BC01990F880B990B0E9427
:1001A000721620E030E040EA50E40E94271720E079
:1001B00030EC4FE754E40E94CF152E853F854889E7
:1001C00059890E94CF156A8B7B8B8C8B9D8B2E89D6
:1001D0003F89488D598D0E94CA1587FF0AC0E88162
:1001E000F9810084F185E02D62E0CE01DF91CF91AD
:1001F0000994DF91CF9108958F929F92AF92BF9211
:10020000CF92DF92EF92FF92CF93DF93EC018D813B
:100210000E943E08BC01990F880B990B0E94721630
:1002200020E030EC4FE754E40E94CF156B017C01D5
:100230009B01AC0160E070E080E89FE30E945D15E7
:100240002E813F81488559850E9427174B015C010B
:100250002A853B854C855D85C701B6010E9427171D
:100260009B01AC01C501B4010E945E156B017C01CC
:100270006E877F87888B998B2A893B894C895D891A
:100280000E94CA1587FD0AC02E893F89488D598D65
:10029000C701B6010E942217181694F4E881F9816B
:1002A0000084F185E02D62E0CE01DF91CF91FF90D7
:1002B000EF90DF90CF90BF90AF909F908F90099478
:1002C000DF91CF91FF90EF90DF90CF90BF90AF90F4
:1002D0009F908F9008950F931F930E94AD090091F6
:1002E0003603109137032091380330913903DC0134
:1002F000CB01801B910BA20BB30B00913A03109121
:100300003B0320913C0330913D03081719072A074E
:100310003B0730F081E080931A031F910F910895FD
:1003200061E08AE00E948F06FFCF4F925F926F924A
:100330007F928F929F92AF92BF92CF92DF92EF9275
:10034000FF92CF93DF93EC010E94AD096B017C011A
:100350008091700290917102BC0180E090E00E9457
:10036000701620E030E64AE657E40E9427174B015A
:100370005C018E819F81A885B985A7019601281B04
:10038000390B4A0B5B0BCA01B9010E9470169B0125
:10039000AC01C501B4010E94CF154B015C01CE82B6
:1003A000DF82E886F9861092710210927002EC8169
:1003B000FD81C188D288E388F4886A877B878C872F
:1003C0009D874E845F8468887988A3019201C70164
:1003D000B6010E9422171816DCF461E08B810E949E
:1003E0008F068E89882389F020E030E048EC52E4C3
:1003F000C501B4010E94CA1587FF07C0E881F981D1
:100400000084F185E02D62E01EC081E08E8B15C076
:100410002A893B894C895D89C301B2010E945D151F
:100420009B01AC01C701B6010E94CA1587FF05C038
:1004300060E08B810E948F061E8AE881F98100842A
:10044000F185E02D60E0CE01DF91CF91FF90EF903C
:10045000DF90CF90BF90AF909F908F907F906F90E4
:100460005F904F900994CF92DF92EF92FF920F939B
:100470001F93CF93DF93EC01162F88858230B9F05C
:100480006230A9F48F81811112C081E08F830E94B4
:10049000AD09CB80DC80ED80FE80DC01CB018C0DD2
:1004A0009D1DAE1DBF1D89879A87AB87BC870F81B5
:1004B000002361F00E94AD09C984DA84EB84FC84D6
:1004C0006C157D058E059F0570F01F821887612FC2
:1004D000CE01DF91CF911F910F91FF90EF90DF90B0
:1004E000CF900C94B70081E08A83802FDF91CF9169
:1004F0001F910F91FF90EF90DF90CF900895CB0167
:1005000069EC71E00C94830BCB0160ED71E00C940D
:10051000830B9B01FC018585813049F028F08230F6
:1005200049F0833051F0089564ED71E008C06AED40
:1005300071E005C060EE71E002C067EE71E0C901D4
:100540000C94830BCB016DEE71E00C94830B9B013B
:10055000FC0167817085C9010C94830BCB0165EFA9
:1005600071E00C94830B9B01FC0163817481C901D0
:100570000C94830B4F925F926F927F928F929F9217
:10058000AF92BF92EF92FF920F931F93CF93DF939F
:10059000CDB7DEB729970FB6F894DEBF0FBECDBF3B
:1005A0008C01DC011396ED90FC90149780916E0203
:1005B00090916F02181619060CF45BC0F701868142
:1005C00097810E94DD0C40E06CECD70116968D916E
:1005D0009C9117970E946E0CF701408164E486811C
:1005E00097810E946E0CD70112968C9112978823E6
:1005F000E9F11196EC91E950E33040F4F0E0EE0FB0
:10060000FF1FEB5CFE4F8080918004C0FEEE8F2EBA
:10061000F2E09F2EF7018381882311F180818111FF
:100620001FC00E94AD092B013C01092C000CAA0837
:10063000BB08D70116968D919C9117970E941B0CB1
:100640008130A1F00E94AD09DC01CB018819990924
:10065000AA09BB0984159505A605B70550F306C080
:10066000B401990C880B990B0E945508F7018581FC
:1006700090E0019790936F0280936E02D8011596D7
:10068000ED90FC901697AE014F5F5F4FB701139648
:100690008D919C9114970E94130D882361F16981BB
:1006A000B8E06B9FB00111248A81282F30E0322FEF
:1006B0002227330F330F330F262B372BF70180817F
:1006C0008031E1F4688570E08F81AB01481B5109EE
:1006D000CA019695982F8827979587950E94991714
:1006E00060517109207F53E0220F331F5A95E1F7C3
:1006F000620F731F04C060E874EE01C0B901613875
:1007000054EE75077CF0072E000C880B990B0E94A5
:10071000721620E030E040E05CE30E9427174B01B6
:100720005C0106C0812C912C8EEFA82E82ECB82E95
:10073000D80151968D929D92AD92BC9254971D9680
:100740002D913D914D915C915097C501B4010E944E
:100750002217F801E080F18087FF0AC020E030E036
:100760004EEF52ECC501B4010E94CA15811107C0B9
:10077000D7011896ED91FC91199762E013C0F8012A
:100780002185328543855485C501B4010E94221715
:10079000D7011896ED91FC91199787FD02C061E091
:1007A00001C060E0C801099529960FB6F894DEBF34
:1007B0000FBECDBFDF91CF911F910F91FF90EF90B2
:1007C000BF90AF909F908F907F906F905F904F9071
:1007D0000895CF93DF93EB01FC0185850E946606A7
:1007E000019719F469EF71E002C06FEF71E0CE017B
:1007F000DF91CF910C94830B0F931F93CF93DF93D3
:10080000EC018E850E9466068C018D850E9466062D
:10081000E881F9810084F185E02D0817190711F0AE
:1008200062E001C060E0CE01DF91CF911F910F9196
:1008300009940F931F93CF93DF93EC0180E10E9403
:1008400066068C018FE00E9466060115110549F4C9
:100850008130910511F41D860DC0892B49F482E089
:1008600008C00130110521F4019711F481E001C0A5
:1008700083E08D87E881F9810084F185E02D6D8525
:10088000611162E0CE01DF91CF911F910F91099428
:10089000CF93DF93EB01FC01428553856485758519
:1008A00020E0CE010E94A10A65E072E0CE01DF9156
:1008B000CF910C94830BCF93DF93EB01FC01428922
:1008C00053896489758921E0CE010E94A10A6AE0FA
:1008D00072E0CE01DF91CF910C94830BCF93DF9325
:1008E000EB01FC01468557856089718920E0CE01C6
:1008F0000E94A10A6DE072E0CE01DF91CF910C94CD
:10090000830B6115710579F0FB0101900020E9F777
:100910003197AF01461B570BDC01ED91FC91028032
:10092000F381E02D099480E090E00895CF92DF926A
:10093000EF92FF92CF93DF93EB01FC01C188D28845
:10094000E388F48820E030E04EEF52ECC701B601B6
:100950000E94CA1581110BC067E372E0CE01DF91DE
:10096000CF91FF90EF90DF90CF900C94830B21E01C
:10097000B701A601CE010E94A10AE881F981019088
:10098000F081E02D60E0CE0109956FE372E0CE01C9
:10099000DF91CF91FF90EF90DF90CF900C94810486
:1009A000FC0180819181009711F00C947E180895CC
:1009B000CF93DF93FC0111821082FB010190002094
:1009C000E9F731976E177F0731F0EC01CB010E94F8
:1009D0001B1999838883DF91CF9108954F925F927D
:1009E0006F927F92AF92BF92CF92DF92EF92FF927F
:1009F0000F931F93CF93DF93EC018FEB91E09983DB
:100A000088837C836B835E834D83F9016081718170
:100A1000CE0107960E94D804E986FA860B871C87C8
:100A2000AD86BE86CF86D88ADF91CF911F910F9178
:100A3000FF90EF90DF90CF90BF90AF907F906F903E
:100A40005F904F900895833081F028F4813099F0C1
:100A50008230A1F008958730A9F08830B9F0843051
:100A6000D1F4809180008F7D03C0809180008F77CA
:100A700080938000089584B58F7702C084B58F7D00
:100A800084BD08958091B0008F7703C08091B0003D
:100A90008F7D8093B0000895209116033091170345
:100AA0002E5F3F4F3093170320931603409114039A
:100AB000509115038091180390911903880F991F85
:100AC000840F951F2817390721F45093170340937B
:100AD000160380911603909117030895AF92BF9269
:100AE000CF92DF92EF92FF920F931F93CF93DF93FA
:100AF0001F92CDB7DEB75C01D62EE72EFC018585AF
:100B0000811105C0C5010E94DD0C811106C0F501EF
:100B100013861586148680E065C040E060EFC5014D
:100B20000E946E0C01E0F12CC12C11E0C5010E9465
:100B30001B0C682FC50169830E941B0C6981613001
:100B400019F48130B9F433C04F2D50E068131BC045
:100B5000F5018385181730F4E40FF51F8381802396
:100B600049F402C0181731F060E0193058F4F5016B
:100B7000148708C0F501EF0DF11D8381802B83835D
:100B800061E009C0C12EF501E40FF51F9381802FAC
:100B9000809589238383C5010E943F0C1F5F000F4E
:100BA00011F4F39401E0F7E0FF1508F0BFCF113422
:100BB00008F4ADCFF501C386C11002C081E085877E
:100BC000F5018381882309F4A2CFD5011396ED2D79
:100BD000FE2D9501255F3F4F8D918193A217B3079D
:100BE000D9F781E00F90DF91CF911F910F91FF9086
:100BF000EF90DF90CF90BF90AF900895FF920F934A
:100C00001F93CF93DF938C01F62EE0910B04F091AC
:100C10000C04138615861486DF011B9633961E92EC
:100C2000AE17BF07E1F7C0E0B80180910B049091C7
:100C30000C040E946E05D82F811102C0D0E00EC0B6
:100C4000CF1108C067E0C8010E94040CF801978129
:100C5000891721F0CF5FFC1688F3E6CF8D2FDF9147
:100C6000CF911F910F91FF900895CF93DF93CDB750
:100C7000DEB729970FB6F894DEBF0FBECDBFAE0129
:100C80004F5F5F4FBC0185E094E00E94130D882305
:100C900089F08D818F3361F020F48F3159F489E030
:100CA0000CC08F3519F08F3739F004C08BE005C0C8
:100CB0008AE003C080E001C08CE029960FB6F8946A
:100CC000DEBF0FBECDBFDF91CF910895CF93DF93ED
:100CD000282F30E0F901E458FF4F8491F901E255E3
:100CE000FF4FD491F901E656FF4FC491CC2391F008
:100CF00081110E942305EC2FF0E0EE0FFF1FE0575B
:100D0000FF4FA591B491EC91ED2381E090E021F4A7
:100D100080E002C080E090E0DF91CF9108951F93C2
:100D2000CF93DF93282F30E0F901E458FF4F8491EF
:100D3000F901E255FF4FD491F901E656FF4FC491F6
:100D4000CC23C9F0162F81110E942305EC2FF0E06F
:100D5000EE0FFF1FEE58FF4FA591B4918FB7F89497
:100D6000111105C09C91ED2FE095E92302C0EC9193
:100D7000ED2BEC938FBFDF91CF911F910895CF930F
:100D8000DF93EC0160E08E810E948F0661E08E812E
:100D90000E948F0660E08E810E948F068BE891E0B2
:100DA0000197F1F7DF91CF910895CF92DF92EF9203
:100DB000FF920F931F93CF93DF937C016C0187E029
:100DC000C80ED11CC0E0D0E0062F10E0B8010C2EF8
:100DD00002C0759567950A94E2F76170F6018191FA
:100DE0006F010E948F062196C430D10579F7C701A3
:100DF000DF91CF911F910F91FF90EF90DF90CF90F7
:100E00000C94BF06CF92DF92EF92FF920F931F9345
:100E1000CF93DF93EC01F62E642F8C810E948F0616
:100E20008D818F3F19F060E00E948F068F850F2D16
:100E300010E084FF25C06E0187E0C80ED11CE12CB4
:100E4000F12CB8010E2C02C0759567950A94E2F753
:100E50006170F60181916F010E948F06FFEFEF1A1A
:100E6000FF0A88E0E816F10461F7CE01DF91CF9127
:100E70001F910F91FF90EF90DF90CF900C94BF06E1
:100E8000B80184E0759567958A95E1F7CE010E94D7
:100E9000D5066F2DCE01DF91CF911F910F91FF905D
:100EA000EF90DF90CF900C94D50641E00E940207AE
:100EB00081E090E0089540E00C940207CF93DF9327
:100EC00090E0FC01E255FF4F2491FC01E656FF4FF4
:100ED0008491882361F190E0880F991FFC01E85903
:100EE000FF4FC591D491FC01EE58FF4FA591B491ED
:100EF000611109C09FB7F894888120958223888367
:100F0000EC912E230BC0623061F49FB7F8943881C6
:100F1000822F809583238883EC912E2B2C939FBF67
:100F200006C08FB7F894E8812E2B28838FBFDF91FE
:100F3000CF910895EF92FF920F931F93CF93DF937A
:100F4000EC01423018F08F8588608F874B8B1C8AAC
:100F500080E48D8B6E8B70E0605C7F4F6F8B61E007
:100F60008C810E945E078D818F3F19F061E00E94A5
:100F70005E0761E08E810E945E077E0187E0E80ED9
:100F8000F11C00E010E08F8584FD03C084E090E058
:100F900002C088E090E0081719074CF461E0F701FF
:100FA00081917F010E945E070F5F1F4FECCF8BE3A3
:100FB0009DE00197F1F760E08C810E948F0660E070
:100FC0008E810E948F068D818F3F19F060E00E9414
:100FD0008F066F8564FD1DC063E0CE010E94D506BB
:100FE0000BE416E4C8010197F1F763E0CE010E941B
:100FF000D506C8010197F1F763E0CE010E94D5063E
:1010000083E592E00197F1F762E0CE010E94D506F8
:1010100016C06062CE010E945B078BE496E40197E4
:10102000F1F76F856062CE010E945B0783E592E075
:101030000197F1F76F856062CE010E945B076F85B3
:101040006062CE010E945B0784E0888B6CE0CE0179
:101050000E945B0761E0CE010E945B078BE39FE18A
:101060000197F1F782E0898B66E0CE01DF91CF91A5
:101070001F910F91FF90EF900C945B078E3008F05A
:101080008E508770806480937C0080917A008064A9
:1010900080937A0080917A0086FDFCCF8091780061
:1010A0002091790090E0922B08958F929F92AF92B9
:1010B000BF92CF92DF92EF92FF926B017C010E9470
:1010C00088094B015C01C114D104E104F104F1F081
:1010D0000E948809DC01CB0188199909AA09BB097A
:1010E000883E9340A105B10570F321E0C21AD108F2
:1010F000E108F10888EE880E83E0981EA11CB11C5F
:10110000C114D104E104F10419F7DDCFFF90EF9091
:10111000DF90CF90BF90AF909F908F9008950895EB
:10112000CF92DF92EF92FF920F931F93CF93DF93B3
:101130006C017A018B01C0E0D0E0CE15DF0589F0AB
:10114000D8016D918D01D601ED91FC910190F08156
:10115000E02DC6010995892B11F47E0102C021966C
:10116000ECCFC701DF91CF911F910F91FF90EF90CE
:10117000DF90CF900895089580E090E00895FC01FD
:10118000538D448D252F30E0842F90E0821B930BEC
:10119000541710F0CF96089501970895FC01918D92
:1011A000828D981761F0828DDF01A80FB11D5D96C9
:1011B0008C91928D9F5F9F73928F90E008958FEF37
:1011C0009FEF0895FC01918D828D981731F0828DEB
:1011D000E80FF11D858D90E008958FEF9FEF089542
:1011E000FC01918D228D892F90E0805C9F4F821BA6
:1011F00091098F7399270895FC01848DDF01A80F51
:10120000B11DA35ABF4F2C91848D90E001968F732E
:101210009927848FA689B7892C93A089B1898C914D
:1012200080648C93938D848D981306C00288F38913
:10123000E02D80818F7D80830895EF92FF920F9340
:101240001F93CF93DF93EC0181E0888F9B8D8C8D72
:10125000981305C0E889F989808185FD24C0F62EA0
:101260000B8D10E00F5F1F4F0F731127E02E8C8D39
:10127000E8120CC00FB607FCFACFE889F989808123
:1012800085FFF5CFCE010E94FC08F1CF8B8DFE01CA
:10129000E80FF11DE35AFF4FF0820B8FEA89FB89BB
:1012A0008081806207C0EE89FF896083E889F989BF
:1012B00080818064808381E090E0DF91CF911F91F5
:1012C0000F91FF90EF900895CF93DF93EC01888DFD
:1012D0008823C9F0EA89FB89808185FD05C0A8893A
:1012E000B9898C9186FD0FC00FB607FCF5CF8081C0
:1012F00085FFF2CFA889B9898C9185FFEDCFCE010A
:101300000E94FC08E7CFDF91CF9108950E94161943
:101310003FB7F8948091460490914704A091480407
:10132000B091490426B5A89B05C02F3F19F001963E
:10133000A11DB11D3FBFBA2FA92F982F8827820F5B
:10134000911DA11DB11DBC01CD0142E0660F771FAB
:10135000881F991F4A95D1F708952FB7F894609187
:1013600042047091430480914404909145042FBF3E
:1013700008951F920F920FB60F9211242F933F934F
:101380008F939F93AF93BF938091420490914304B6
:10139000A0914404B09145043091410423E0230F0F
:1013A0002D3720F40196A11DB11D05C026E8230F9D
:1013B0000296A11DB11D2093410480934204909395
:1013C0004304A0934404B093450480914604909153
:1013D0004704A0914804B09149040196A11DB11D94
:1013E0008093460490934704A0934804B093490423
:1013F000BF91AF919F918F913F912F910F900FBE11
:101400000F901F9018951F920F920FB60F921124F4
:101410002F933F934F935F936F937F938F939F93FC
:10142000AF93BF93EF93FF93E0911D01F0911E01E5
:101430000995FF91EF91BF91AF919F918F917F910E
:101440006F915F914F913F912F910F900FBE0F9031
:101450001F9018951F920F920FB60F9211242F9381
:101460003F934F935F936F937F938F939F93AF932C
:10147000BF93EF93FF93E0911B01F0911C0109953D
:10148000FF91EF91BF91AF919F918F917F916F915C
:101490005F914F913F912F910F900FBE0F901F9032
:1014A00018954F925F926F927F92EF92FF920F93F7
:1014B0001F93CF93DF93CDB7DEB7A1970FB6F89404
:1014C000DEBF0FBECDBF7C01FA01CB0119A22230D5
:1014D00008F42AE08E010F5D1F4F422E512C612C23
:1014E000712CBF01A30192010E94AD17F901CA013D
:1014F000015011096A3014F4605D01C0695CD801C3
:101500006C93232B242B252B61F7B801C7010E9474
:101510008104A1960FB6F894DEBF0FBECDBFDF9158
:10152000CF911F910F91FF90EF907F906F905F9000
:101530004F900895DC01ED91FC910190F081E02D38
:1015400009944F925F926F927F928F929F92AF9287
:10155000BF92CF92DF92EF92FF92CF93DF93EC0195
:101560006A017B01B22E9A01AB01C701B6010E944C
:101570009417882319F061E672E027C0260137012D
:10158000E89477F82FEF3FEF4FE75FE7C301B20131
:101590000E94941781110DC02FEF3FEF4FE75FE7D7
:1015A000C301B2010E94CA1518161CF465E672E068
:1015B0000CC02FEF3FEF4FE75FE4C701B6010E9479
:1015C000221718169CF469E672E0CE01DF91CF91E4
:1015D000FF90EF90DF90CF90BF90AF909F908F9053
:1015E0007F906F905F904F900C9481042FEF3FEFAE
:1015F0004FE75FECC701B6010E94CA1587FDE3CF34
:1016000020E030E0A901C701B6010E94CA1587FF9A
:101610000AC06DE2CE010E949A0A4C01F7FAF094DA
:10162000F7F8F09402C0812C912CA12C60E070E0BE
:1016300080E09FE3AB1441F020E030E040E251E471
:101640000E94CF15A394F6CF9B01AC01C701B60150
:101650000E945E152B013C010E9441166B017C012A
:101660000E9470169B01AC01C301B2010E945D157E
:101670002B013C012AE0B701A601CE010E94510ACC
:101680007C01E80CF91CBB2031F06EE2CE010E9417
:101690009A0AE80EF91EDB2CDD2029F120E030E06B
:1016A00040E251E4C301B2010E9427172B013C0123
:1016B0000E9441164B01A12CB12C2AE0B501A401D6
:1016C000CE010E94510AE80EF91EC501B4010E9424
:1016D00070169B01AC01C301B2010E945D152B0184
:1016E0003C01DA94D9CFC701DF91CF91FF90EF9001
:1016F000DF90CF90BF90AF909F908F907F906F9032
:101700005F904F9008950C9481041F920F920FB632
:101710000F9211242F933F934F935F936F937F9377
:101720008F939F93AF93BF93EF93FF9385E792E0DF
:101730000E94FC08FF91EF91BF91AF919F918F9113
:101740007F916F915F914F913F912F910F900FBEBD
:101750000F901F9018951F920F920FB60F921124A1
:101760002F938F939F93EF93FF93E0918502F091D6
:1017700086028081E0918B02F0918C0282FD12C082
:10178000908180918E028F5F8F7320918F028217DC
:1017900051F0E0918E02F0E0EB58FD4F958F809371
:1017A0008E0201C08081FF91EF919F918F912F91C7
:1017B0000F900FBE0F901F9018951F920F920FB6AB
:1017C0000F9211242F933F934F935F936F937F93C7
:1017D0008F939F93AF93BF93EF93FF93E0913F0459
:1017E000F09140040995FF91EF91BF91AF919F91C6
:1017F0008F917F916F915F914F913F912F910F90BA
:101800000FBE0F901F901895DC0180E0615090F0A2
:101810009D919827E92FEF70F0E0EE53FF4F249150
:1018200092959F70E92FF0E0EE52FF4FE4918E2FDA
:101830008227ECCF0895FC0190810180F281E02D98
:10184000F8948181892B81832281892F8095282397
:101850002283A7E0B0E01197F1F7218182238183F1
:10186000A3E2B0E01197F1F780817894EFECF0E01B
:101870003197F1F7982381E009F480E00895FC01A5
:1018800090810180F281E02D892F809560FF12C048
:10189000F8942281822382838181892B8183A3E230
:1018A000B0E01197F1F78281982B9283789487EDBD
:1018B00090E011C0F8942281822382838181892B58
:1018C0008183AFEFB0E01197F1F78281982B92837B
:1018D00078948FE090E00197F1F70895CF92DF922E
:1018E000EF92FF920F931F93CF93DF931F92CDB789
:1018F000DEB76C01E62E08E010E0FF24F39461E00F
:101900008F2D8E2109F460E0C60149830E943F0CAF
:10191000FF0C0150110949810115110581F7411191
:1019200015C0F894D6011196ED91FC911297918112
:101930008C918095892381831196ED91FC9112976A
:1019400092818C9180958923828378940F90DF9186
:10195000CF911F910F91FF90EF90DF90CF9008955E
:10196000CF92DF92EF92FF920F931F93CF93DF936B
:101970001F92CDB7DEB78C01F62E40E065E5798386
:101980000E946E0CCF2C7981D72E760188E0E80E6C
:10199000F11CF60161916F0140E0C8010E946E0CDC
:1019A000CE14DF04B1F70F90DF91CF911F910F910B
:1019B000FF90EF90DF90CF900895FC01908101801F
:1019C000F281E02DF8948181292F20958223818353
:1019D00078948DE743E050E0815021F1DA011197CE
:1019E000F1F730813923C1F3F89482818223828315
:1019F0008181892B81837894ABE7B7E01197F1F768
:101A0000F894818128232183A3E1B1E01197F1F7B4
:101A10008081982381E009F080E07894E3E6F6E0A5
:101A20003197F1F708954F925F926F927F928F9264
:101A30009F92AF92BF92CF92DF92EF92FF920F935D
:101A40001F93CF93DF9300D0CDB7DEB72C018A016F
:101A5000FC018681978169837A830E94DD0C69810C
:101A60007A818823C9F1F201868197810E94B00CA6
:101A700040E06EEBF201868197810E946E0C780146
:101A80004801F9E08F0E911CF2016680778088E0B2
:101A9000A82EB12CCC24C394D12CC3010E941B0CC2
:101AA0008111DC28CC0CF1E0AF1AB108B1F7F701D5
:101AB000D1927F01E815F90539F7F2018681978106
:101AC0000E94DD0C813041F468E0C8010E94040CE2
:101AD00091E0F8012085821390E0892F0F900F90FC
:101AE000DF91CF911F910F91FF90EF90DF90CF90FA
:101AF000BF90AF909F908F907F906F905F904F902E
:101B00000895CF93DF93CDB7DEB761970FB6F89402
:101B1000DEBF0FBECDBF789484B5826084BD84B52E
:101B2000816084BD85B5826085BD85B5816085BDD8
:101B300080916E00816080936E0010928100809190
:101B40008100826080938100809181008160809318
:101B50008100809180008160809380008091B1003D
:101B600084608093B1008091B00081608093B00068
:101B700080917A00846080937A0080917A008260FC
:101B800080937A0080917A00816080937A008091BE
:101B90007A00806880937A001092C10060E082E051
:101BA0000E945E0760E083E00E945E0760E083E1E0
:101BB0000E945E0761E08BE00E945E0761E08AE0C0
:101BC0000E945E0761E08DE00E945E0760E08FE0AA
:101BD0000E945E0760E080E10E945E0761E08BE0AA
:101BE0000E945E0760E08BE00E948F0660E08AE062
:101BF0000E948F0660E08DE00E948F06E0918502D2
:101C0000F091860282E08083E0918102F09182026D
:101C10001082E0918302F09184028FEC8083109215
:101C20008D02E0918902F0918A0286E08083E09142
:101C30008702F0918802808180618083E091870231
:101C4000F0918802808188608083E0918702F09122
:101C50008802808180688083E0918702F091880209
:101C600080818F7D808388E0E5E2F1E0DE011A96D5
:101C700001900D928A95E1F788E0EDE2F1E0DE0156
:101C8000119601900D928A95E1F760E487E294E065
:101C90000E945B077E012AE0E20EF11C5E0132E148
:101CA000A30EB11C0E2DDF2CD7016D917D0187E2B3
:101CB00094E00E945507EA14FB04B1F768E487E258
:101CC00094E00E945B07FE0131965F017E01F9E01E
:101CD000EF0EF11CD5016D915D0187E294E00E9449
:101CE0005507AE14BF04B1F742E068E087E294E024
:101CF0000E949A07E0910B04F0910C04138615865C
:101D00001486DF011B9633961E92AE17BF07E1F7CC
:101D10001092090410920A04CC24C394BE016F5F90
:101D20007F4F80910B0490910C040E946E058823D4
:101D300009F467C067E0CE0101960E94040C988503
:101D40008913ECCF80910504811127C080910B0489
:101D500090910C040E94DD0CBE016F5F7F4F80915B
:101D60000B0490910C040E94B00C40E064EB809155
:101D70000B0490910C040E946E0C80910B049091C6
:101D80000C040E941B0C182F80910B0490910C04E2
:101D90000E94DD0C112309F48EC310910604898181
:101DA000803109F4A6C3CE0101960E943506811741
:101DB00018F48091060409C08981803111F48CE007
:101DC00004C0CE0101960E943506809306048091DE
:101DD00009048F5F809309042981283261F030F46F
:101DE000203149F0223209F099CF05C02B3319F088
:101DF000223409F093CF80910A048F5F80930A0404
:101E00008DCF81E08093070489E080930604A12CA4
:101E1000B12C4FE5C42E5FE7952E6FE1862E7FE350
:101E2000772E8091090490E0A816B9060CF0A0C0A6
:101E30006A2D802F9D2D0E94FE05109106041930F9
:101E400020F01D3018F01CE001C019E08A858031B7
:101E500029F0802F9D2D0E94350601C08CE081174E
:101E600009F482C0AE014F5F5F4F602F7D2D85E08A
:101E700094E00E94130D882309F476C08A8580318E
:101E800009F472C01B3041F01C3021F01A3031F4DB
:101E90007D8205C09D8203C0CD8201C08D8280916C
:101EA0000B0490910C040E94DD0C602F7D2D80911D
:101EB0000B0490910C040E94B00C40E06EE4809101
:101EC0000B0490910C040E946E0C40E06B81809199
:101ED0000B0490910C040E946E0C40E06C81809188
:101EE0000B0490910C040E946E0C8A85803141F0A5
:101EF00040E06D8180910B0490910C040E946E0C67
:101F000080910B0490910C040E94DD0C602F7D2DBC
:101F100080910B0490910C040E94B00C4091050438
:101F200068E480910B0490910C040E946E0C64E1B3
:101F300070E080E090E00E945508809105048823BD
:101F400031F06AE070E080E090E00E9455088091F6
:101F50000B0490910C040E94DD0C8091060418176C
:101F600008F4182F10930604BFEFAB1ABB0A59CF21
:101F7000812C912C54018091090490E088169906D7
:101F80000CF048C060E172E085E792E00E94830BAC
:101F90002AE0B501A40185E792E00E94510A66E2B9
:101FA00072E085E792E00E94830B682DCE010196D6
:101FB0000E94FE058E010F5F1F4F6801F8018081AE
:101FC000803130F462E372E085E792E00E94830B97
:101FD0000F5F1F4FD6018C91482F50E060E070E0FA
:101FE00020E185E792E00E94510A60E372E085E714
:101FF00092E00E94830B0E151F05F9F664E372E070
:1020000085E792E00E948104BFEF8B1A9B0AAB0A1E
:10201000BB0AB1CF80E1809381001092800084E000
:102020008093740282E19AE7909373028093720224
:10203000909387008093860084E1809381008BE6F3
:1020400091E09093400480933F0481E080936F007F
:102050001092810010928500109284008091740289
:102060008061809381008DE990E090931E018093C0
:102070001D0180916900837F886080936900E99ADF
:102080005524539497E8A92E90E0B92E77247394A1
:1020900024E0622E3BE3832E3FE1932E83E0482E23
:1020A0000E94AD0960933603709337038093380321
:1020B0009093390380911A03882359F18091180372
:1020C00090911903892B19F410921A0322C00091E0
:1020D00016031091170310921B03E0911603F09161
:1020E0001703E080F180D701ED91FC910190F08120
:1020F000E02DC7010995F7018281823021F47092A9
:102100001B03109234030E944C050817190729F786
:10211000DBCF8EE00E943E08BC01990F880B990B23
:102120000E9472166B017C012AE939E94CEC53E4F8
:102130000E94CA1587FD1AC024E333E749E154E43D
:10214000C701B6010E94CA1587FD13C02CEC3CE202
:1021500046E654E4C701B6010E94CA15382E331C66
:102160003324331CF42DF3193F2E04C0332433944D
:1021700001C0312C02E113E0212C24E0329EC00189
:102180001124DC01A85DBC4F7D0132100DC0F701A8
:1021900080819181A281B3810196A11DB11D8083AF
:1021A0009183A283B383B0C0F80186899789A08DFB
:1021B000B18D8137F7E19F07A105B105C8F022E095
:1021C00022129BC0C0901603D0901703E091160313
:1021D000F09117030190F081E02D8281833011F49A
:1021E00032E032830E944C05C816D90679F785C0C3
:1021F0000297A105B10508F480C081E0281609F412
:102200006BC0281628F092E0291609F46BC075C03F
:1022100080913503811102C060923503209135030E
:10222000215020933503A5E52A9F6001112461E028
:102230008BE00E945E07C114D10411F460E005C078
:10224000BFEFCB16D10429F461E08BE00E948F062A
:1022500054C0F50184918330F9F048F48130B9F02D
:102260008230A1F584B5806284BDC8BC46C0873089
:10227000E9F0883019F1843049F58091800080625E
:1022800080938000D0928B00C0928A0036C084B5C3
:10229000806884BDC7BC31C0809180008068809315
:1022A0008000D0928900C092880027C08091B00041
:1022B00080688093B000C092B3001FC08091B000CE
:1022C00080628093B000C092B40017C0F0E8CF16CF
:1022D000D1040CF0B9CFB2CF809134038225809322
:1022E00034030BC0E0911603F09117030190F081C5
:1022F000E02D8281823009F44282D80156961D92E7
:102300001D921D921C92599723940C5F1F4FB3E0AE
:102310002B123BCFC0901E03D0901F03E0902003F0
:10232000F09021030E94AD0920911C0330911D0300
:10233000DC01CB01821B930BA109B109C816D90698
:10234000EA06FB0608F0ACCE80913403811137C059
:10235000C0902403D0902503E0902603F09027033B
:102360000E94AD092091220330912303DC01CB01AF
:10237000821B930BA109B109C816D906EA06FB0610
:10238000F0F480911B03882309F498C00E944C0547
:10239000E0911603F09117030190F081E02D828106
:1023A0008230A1F70E94AD09609324037093250346
:1023B0008093260390932703B1E0B093000161E07E
:1023C00080911203909113030E945B07C40101974F
:1023D000F1F7E0911603F091170300811181D80104
:1023E000ED91FC9160911203709113030480F581CB
:1023F000E02DC8010995E0911203F0911303938930
:10240000923010F4915001C091E0DF01A90FB11D8D
:1024100054966C916068CF010E945B07D801ED91E2
:10242000FC9160911203709113030680F781E02DF7
:10243000C8010995F8011281112349F18091000129
:10244000882301F1E0911203F091130393899230F4
:1024500010F4915001C091E0DF01A90FB11D549615
:102460006C91695F6068CF010E945B0780911203E5
:1024700090911303DC01ED91FC910190F081E02D2E
:1024800061E20995123019F46091000101C060E029
:102490008AE00E948F0680910001852580930001CB
:1024A0000E94AD0960931E0370931F038093200365
:1024B00090932103F3CDC09205046FCC00911603D5
:1024C000109117030E944C05E0911603F091170339
:1024D00080819181DC01ED91FC910280F381E02DFE
:1024E000099581115FCF0E944C050817190751F714
:1024F00059CF1D3008F05DCC62CC3F924F925F9275
:102500006F927F928F929F92AF92BF92CF92DF9203
:10251000EF92FF920F931F93CF93DF9300D0CDB72D
:10252000DEB7109278021092770288EE93E0A0E076
:10253000B0E08093790290937A02A0937B02B093EB
:102540007C028FE391E0909376028093750285EC94
:1025500090E0909382028093810284EC90E09093CB
:1025600084028093830280EC90E0909386028093B3
:10257000850281EC90E0909388028093870282EC40
:1025800090E090938A028093890286EC90E0909389
:102590008C0280938B0210928E0210928F02109206
:1025A00090021092910210922A041092290483EB57
:1025B00091E0909328048093270484E080932B0477
:1025C0008FEF80932C0485E080932D0486E0809328
:1025D0002E0487E080932F0488E08093300489E004
:1025E0008093310410923204109233041092340418
:1025F000109235041092360441E060E187E294E0E5
:102600000E949A0760E08CE00E945E07EAEBF0E02F
:10261000E491E0931904E6EAF0E0E491F0E0EE0FD3
:10262000FF1FE057FF4F8591949190931B04809377
:102630001A04109224041092260410922504E4E255
:10264000F4E0129284E0EC31F807D9F789E194E0E4
:1026500090930C0480930B041092090410920A04C6
:102660001092050489E08093060433243394309259
:10267000070430920804109218041092170461E4C1
:1026800072E0CE0101960E94D804A12CB12C88ECF6
:10269000C82E82E4D82E860175019E012F5F3F4F20
:1026A00043E151E065E074E080EF93E00E94EE04C6
:1026B000CE0101960E94D00469E472E0CE01019639
:1026C0000E94D804A12CB12C9CE8C92E92E4D92EEA
:1026D000E12CF12C00E212E49E012F5F3F4F4BE012
:1026E00051E065E074E08BED93E00E94EE04CE01D2
:1026F00001960E94D00460E572E0CE0101960E942E
:10270000D804A12CB12C38ECC32E32E4D32EE12C0A
:10271000F12C04EB12E49E012F5F3F4F43E051E0A8
:1027200065E074E086EC93E00E94EE04CE01019631
:102730000E94D00488EE93E0A0E0B0E08093BB0359
:102740009093BC03A093BD03B093BE0389E891E0CE
:102750009093B9038093B80367E572E0CE010196C8
:102760000E94D8040BE711E010939F0300939E038F
:1027700069817A8181EA93E00E94D80482E18093A2
:10278000A303812C912C58ECA52E52ECB52E8092EF
:10279000A4039092A503A092A603B092A703412C94
:1027A000512C68EC662E62E4762E4092A80350927B
:1027B000A9036092AA037092AB03C12CD12CE12C27
:1027C00070ECF72EC092B003D092B103E092B20346
:1027D000F092B30380E090E0A8E4B2E48093B40305
:1027E0009093B503A093B603B093B703CE010196BF
:1027F0000E94D0046CE572E0CE0101960E94D804DC
:10280000109385030093840369817A8187E893E0BC
:102810000E94D80481E18093890380928A03909278
:102820008B03A0928C03B0928D0340928E03509242
:102830008F036092900370929103C0929603D0929E
:102840009703E0929803F092990380E090E0A0EA69
:10285000B2E480939A0390939B03A0939C03B0935C
:102860009D03CE0101960E94D0048DE691E09093E5
:102870006E0380936D038DE08093700386EC93E08C
:1028800090937203809371031092730310927403F8
:1028900010927503109276031092770310927803CA
:1028A0001092790310927A0380E090E0A0E2B2E403
:1028B00080937B0390937C03A0937D03B0937E036E
:1028C00080E090E0A0E0B0E480937F0390938003E9
:1028D000A0938103B09382031092830388E893E16D
:1028E000A0E0B0E08093610390936203A093630340
:1028F000B09364032FE531E030935F0320935E03D0
:1029000023E120936B0322E020936C038093470321
:1029100090934803A0934903B0934A0321E531E023
:10292000309345032093440325E12093510342ED66
:102930005BEC6FE97EE34093520350935303609343
:1029400054037093550340E050E060E371E440931A
:102950005A0350935B0360935C0370935D0321E023
:1029600031E030933F0320933E03309341032093A3
:10297000400321E030E030934303209342038093EF
:102980003A0390933B03A0933C03B0933D030E9412
:10299000AD096093360370933703809338039093A7
:1029A000390387E294E0909313038093120386E047
:1029B000EEE3F3E0A4E1B3E001900D928A95E1F734
:1029C00030921A0310921B0384EF91E090931D0341
:1029D00080931C0310921E0310921F031092200379
:1029E0001092210380ED97E09093230380932203BC
:1029F00010922403109225031092260310922703AD
:102A00001092340384E08093350361E08BE00E94F0
:102A10005E0761E08BE00E948F060F900F90DF91C0
:102A2000CF911F910F91FF90EF90DF90CF90BF90CB
:102A3000AF909F908F907F906F905F904F903F905E
:102A40000895CF93DF93CBE7D1E0D0938503C09374
:102A5000840387E893E00E94D004D0939F03C0933F
:102A60009E0381EA93E00E94D004E6ECF3E0CFEB12
:102A7000D1E0D183C083858196810E947E188DEC40
:102A800093E00E94D004EBEDF3E0D183C083858115
:102A900096810E947E1882EE93E00E94D004E0EFBF
:102AA000F3E0D183C083858196810E947E1887EFF1
:102AB00093E0DF91CF910C94D0045058BB27AA2704
:102AC0000E9475150C94E8160E94DA1638F00E94E0
:102AD000E11620F039F49F3F19F426F40C94D71630
:102AE0000EF4E095E7FB0C94D116E92F0E94F9163D
:102AF00058F3BA17620773078407950720F079F433
:102B0000A6F50C941B170EF4E0950B2EBA2FA02DF2
:102B10000B01B90190010C01CA01A0011124FF278A
:102B2000591B99F0593F50F4503E68F11A16F04085
:102B3000A22F232F342F4427585FF3CF4695379584
:102B40002795A795F0405395C9F77EF41F16BA0B49
:102B5000620B730B840BBAF09150A1F0FF0FBB1FF7
:102B6000661F771F881FC2F70EC0BA0F621F731F40
:102B7000841F48F4879577956795B795F7959E3F9D
:102B800008F0B0CF9395880F08F09927EE0F97952E
:102B9000879508950E94AD1608F481E008950E947B
:102BA000E3150C94E8160E94E11658F00E94DA161C
:102BB00040F029F45F3F29F00C94D11651110C9488
:102BC0001C170C94D7160E94F91668F39923B1F3D9
:102BD000552391F3951B550BBB27AA276217730743
:102BE000840738F09F5F5F4F220F331F441FAA1FD7
:102BF000A9F335D00E2E3AF0E0E832D09150504093
:102C0000E695001CCAF72BD0FE2F29D0660F771F40
:102C1000881FBB1F261737074807AB07B0E809F026
:102C2000BB0B802DBF01FF2793585F4F3AF09E3FAB
:102C3000510578F00C94D1160C941C175F3FE4F307
:102C4000983ED4F3869577956795B795F7959F5FEE
:102C5000C9F7880F911D9695879597F90895E1E03A
:102C6000660F771F881FBB1F621773078407BA0799
:102C700020F0621B730B840BBA0BEE1F88F7E095F4
:102C800008950E94011788F09F5798F0B92F99274F
:102C9000B751B0F0E1F0660F771F881F991F1AF047
:102CA000BA95C9F714C0B13091F00E941B17B1E07A
:102CB00008950C941B17672F782F8827B85F39F079
:102CC000B93FCCF3869577956795B395D9F73EF4E0
:102CD00090958095709561957F4F8F4F9F4F089588
:102CE000E89409C097FB3EF49095809570956195A6
:102CF0007F4F8F4F9F4F9923A9F0F92F96E9BB275C
:102D00009395F695879577956795B795F111F8CFD7
:102D1000FAF4BB0F11F460FF1BC06F5F7F4F8F4F42
:102D20009F4F16C0882311F096E911C0772321F038
:102D30009EE8872F762F05C0662371F096E8862FD0
:102D400070E060E02AF09A95660F771F881FDAF727
:102D5000880F9695879597F90895990F0008550F54
:102D6000AA0BE0E8FEEF16161706E807F907C0F011
:102D700012161306E407F50798F0621B730B840B19
:102D8000950B39F40A2661F0232B242B252B21F4F3
:102D900008950A2609F4A140A6958FEF811D811D93
:102DA000089597F99F6780E870E060E008959FEFCD
:102DB00080EC089500240A941616170618060906D2
:102DC000089500240A9412161306140605060895A1
:102DD000092E0394000C11F4882352F0BB0F40F429
:102DE000BF2B11F460FF04C06F5F7F4F8F4F9F4F69
:102DF000089557FD9058440F551F59F05F3F71F0EB
:102E00004795880F97FB991F61F09F3F79F0879551
:102E10000895121613061406551FF2CF4695F1DFDA
:102E200008C0161617061806991FF1CF869571056A
:102E3000610508940895E894BB2766277727CB019E
:102E400097F908950E94AD1608F48FEF08950E9437
:102E50003A170C94E8160E94DA1638F00E94E11630
:102E600020F0952311F00C94D1160C94D716112450
:102E70000C941C170E94F91670F3959FC1F3950FDF
:102E800050E0551F629FF001729FBB27F00DB11DEE
:102E9000639FAA27F00DB11DAA1F649F6627B00D7E
:102EA000A11D661F829F2227B00DA11D621F739F67
:102EB000B00DA11D621F839FA00D611D221F749F75
:102EC0003327A00D611D231F849F600D211D822FBC
:102ED000762F6A2F11249F5750409AF0F1F08823E3
:102EE0004AF0EE0FFF1FBB1F661F771F881F915010
:102EF0005040A9F79E3F510580F00C94D1160C94D8
:102F00001C175F3FE4F3983ED4F386957795679559
:102F1000B795F795E7959F5FC1F7FE2B880F911D39
:102F20009695879597F908950E94AD16880B990B91
:102F3000089597FB072E16F4009407D077FD09D06B
:102F40000E94CF1707FC05D03EF4909581959F4FC6
:102F50000895709561957F4F0895A1E21A2EAA1BDE
:102F6000BB1BFD010DC0AA1FBB1FEE1FFF1FA21739
:102F7000B307E407F50720F0A21BB30BE40BF50B36
:102F8000661F771F881F991F1A9469F760957095BF
:102F9000809590959B01AC01BD01CF010895AA1BBE
:102FA000BB1B51E107C0AA1FBB1FA617B70710F034
:102FB000A61BB70B881F991F5A95A9F78095909566
:102FC000BC01CD010895EE0FFF1F0590F491E02D97
:102FD0000994CF93DF938230910510F482E090E062
:102FE000E0914C04F0914D0420E030E0C0E0D0E0EE
:102FF000309711F14081518148175907C0F04817A7
:10300000590761F482819381209719F09B838A8309
:103010002BC090934D0480934C0426C0211531059C
:1030200019F04217530718F49A01BE01DF01EF01AE
:103030000280F381E02DDCCF2115310509F1281B39
:10304000390B2430310590F412968D919C91139791
:103050006115710521F0FB019383828304C0909375
:103060004D0480934C04FD01329644C0FD01E20FF3
:10307000F31F81939193225031092D933C933AC0D1
:1030800020914A0430914B04232B41F420912101DB
:103090003091220130934B0420934A0420911F0168
:1030A000309120012115310541F42DB73EB74091F3
:1030B000230150912401241B350BE0914A04F09127
:1030C0004B04E217F307A0F42E1B3F0B2817390718
:1030D00078F0AC014E5F5F4F2417350748F04E0F74
:1030E0005F1F50934B0440934A048193919302C015
:1030F000E0E0F0E0CF01DF91CF9108950F931F93AF
:10310000CF93DF93009709F48CC0FC0132971382B0
:10311000128200914C0410914D040115110581F4A7
:1031200020813181820F931F20914A0430914B04FA
:103130002817390779F5F0934B04E0934A0471C0DE
:10314000D80140E050E0AE17BF0750F412962D9121
:103150003C911397AD012115310509F1D901F3CF48
:103160009D01DA013383228360817181860F971F6D
:103170008217930769F4EC0128813981260F371FE4
:103180002E5F3F4F318320838A819B81938382838B
:10319000452B29F4F0934D04E0934C0442C0139660
:1031A000FC93EE931297ED01499159919E01240FE2
:1031B000351FE217F30771F480819181840F951F09
:1031C000029611969C938E938281938113969C9381
:1031D0008E931297E0E0F0E0D80112968D919C91C9
:1031E0001397009719F0F8018C01F6CF8D919C91FF
:1031F00098012E5F3F4F820F931F20914A04309118
:103200004B042817390769F4309729F410924D04BC
:1032100010924C0402C01382128210934B0400934C
:103220004A04DF91CF911F910F91089581E090E0C2
:10323000F8940C943C190F931F93CF93DF938C0158
:10324000FC0101900020E9F7CF01801B910B0E9447
:10325000E917EC01009719F0B8010E943519CE0169
:10326000DF91CF911F910F910895FB01DC01019037
:103270000D920020E1F7089510E0C2E7D0E004C00D
:10328000FE010E94E3172196C337D107C9F7F894CE
:02329000FFCF6E
:10329200015E0328FF0DBA231603FA28FF07CBC0ED
:1032A2001604C028FF0D6C331603B88F088F080070
:1032B200004E0480000609090600000000040A0A04
:1032C2000A0E1F1F0E5E00BC007701000000001DE9
:1032D200099008BF086409F008CE08E2080000005F
:1032E20000C500C300AE025B04330200000000FC14
:1032F20003A7007F02E9033302000000009501C327
:103302000084024804B70000000000FC00C300B3C0
:10331200026E04B700000000001904AF00A2028987
:10332200023302000000008609C3008609860933C1
:1033320002000000008609C30086098609B7000062
:1033420000000055079008BC08BB0800000000BA46
:1033520002C300A7029604B7004C494748545300E1
:1033620046414E002020204F4B0020204C6F77001A
:10337200202048696768004552524F5200436F6FE0
:103382006C616E7400424154002020204F4E002098
:10339200204F4646002052504D002056002041004A
:1033A200466F756E64204F6E65576972652073654E
:1033B2006E736F7220002E20416464726573733ADB
:1033C200200030000D0A004E4F204441544100437A
:1033D200004F75747369646500496E7369646500B2
:1033E200456E67696E65004241542000414C54208D
:0E33F200006E616E00696E66006F7666000008
:00000001FF
